{"abi":[{"type":"constructor","inputs":[{"name":"semaphoreAddress","type":"address","internalType":"address"},{"name":"title","type":"string","internalType":"string"}],"stateMutability":"nonpayable"},{"type":"function","name":"admin","inputs":[],"outputs":[{"name":"","type":"address","internalType":"address"}],"stateMutability":"view"},{"type":"function","name":"groupId","inputs":[],"outputs":[{"name":"","type":"uint256","internalType":"uint256"}],"stateMutability":"view"},{"type":"function","name":"joinGroup","inputs":[{"name":"idCommitment","type":"uint256","internalType":"uint256"}],"outputs":[],"stateMutability":"nonpayable"},{"type":"function","name":"semaphore","inputs":[],"outputs":[{"name":"","type":"address","internalType":"contract ISemaphore"}],"stateMutability":"view"},{"type":"function","name":"sendFeedback","inputs":[{"name":"merkleTreeDepth","type":"uint256","internalType":"uint256"},{"name":"merkleTreeRoot","type":"uint256","internalType":"uint256"},{"name":"nullifier","type":"uint256","internalType":"uint256"},{"name":"feedback","type":"uint256","internalType":"uint256"},{"name":"points","type":"uint256[8]","internalType":"uint256[8]"}],"outputs":[],"stateMutability":"nonpayable"},{"type":"function","name":"terminate","inputs":[],"outputs":[],"stateMutability":"nonpayable"},{"type":"function","name":"terminated","inputs":[],"outputs":[{"name":"","type":"bool","internalType":"bool"}],"stateMutability":"view"},{"type":"function","name":"title","inputs":[],"outputs":[{"name":"","type":"string","internalType":"string"}],"stateMutability":"view"},{"type":"error","name":"EmptyTitle","inputs":[]},{"type":"error","name":"InvalidFeedback","inputs":[]},{"type":"error","name":"NotAdmin","inputs":[]},{"type":"error","name":"Terminated","inputs":[]}],"bytecode":{"object":"0x608060405234801561001057600080fd5b506040516108dd3803806108dd83398101604081905261002f91610116565b81818051600003610053576040516352ddcdef60e11b815260040160405180910390fd5b600080546001600160a01b031990811633179091556004805460ff19168155600280546001600160a01b0386169316831790556040516302e1f9db60e51b81523091810191909152635c3f3b60906024016020604051808303816000875af11580156100c3573d6000803e3d6000fd5b505050506040513d601f19601f820116820180604052508101906100e791906101ff565b60015560036100f682826102a3565b5050505050610362565b634e487b7160e01b600052604160045260246000fd5b6000806040838503121561012957600080fd5b82516001600160a01b038116811461014057600080fd5b602084810151919350906001600160401b038082111561015f57600080fd5b818601915086601f83011261017357600080fd5b81518181111561018557610185610100565b604051601f8201601f19908116603f011681019083821181831017156101ad576101ad610100565b8160405282815289868487010111156101c557600080fd5b600093505b828410156101e757848401860151818501870152928501926101ca565b60008684830101528096505050505050509250929050565b60006020828403121561021157600080fd5b5051919050565b600181811c9082168061022c57607f821691505b60208210810361024c57634e487b7160e01b600052602260045260246000fd5b50919050565b601f82111561029e576000816000526020600020601f850160051c8101602086101561027b5750805b601f850160051c820191505b8181101561029a57828155600101610287565b5050505b505050565b81516001600160401b038111156102bc576102bc610100565b6102d0816102ca8454610218565b84610252565b602080601f83116001811461030557600084156102ed5750858301515b600019600386901b1c1916600185901b17855561029a565b600085815260208120601f198616915b8281101561033457888601518255948401946001909101908401610315565b50858210156103525787850151600019600388901b60f8161c191681555b5050505050600190811b01905550565b61056c806103716000396000f3fe608060405234801561001057600080fd5b50600436106100885760003560e01c80637b85d27a1161005b5780637b85d27a146100f9578063a0f44c921461010c578063eed02e4b14610123578063f851a4401461013657600080fd5b80630c08bf881461008d578063194307bf146100975780634a79d50c146100b95780637b5d2534146100ce575b600080fd5b610095610149565b005b6004546100a49060ff1681565b60405190151581526020015b60405180910390f35b6100c1610183565b6040516100b091906103d0565b6002546100e1906001600160a01b031681565b6040516001600160a01b0390911681526020016100b0565b61009561010736600461041f565b610211565b61011560015481565b6040519081526020016100b0565b610095610131366004610472565b610273565b6000546100e1906001600160a01b031681565b6000546001600160a01b0316331461017457604051637bfa4b9f60e01b815260040160405180910390fd5b6004805460ff19166001179055565b600380546101909061048b565b80601f01602080910402602001604051908101604052809291908181526020018280546101bc9061048b565b80156102095780601f106101de57610100808354040283529160200191610209565b820191906000526020600020905b8154815290600101906020018083116101ec57829003601f168201915b505050505081565b60045460ff161561023557604051632b54f9cd60e11b815260040160405180910390fd5b81610241816001101590565b61025e5760405163180b72f760e21b815260040160405180910390fd5b61026b8686868686610308565b505050505050565b60045460ff161561029757604051632b54f9cd60e11b815260040160405180910390fd5b600254600154604051631783efc360e01b81526001600160a01b0390921691631783efc3916102d3918590600401918252602082015260400190565b600060405180830381600087803b1580156102ed57600080fd5b505af1158015610301573d6000803e3d6000fd5b5050505050565b60006040518060c0016040528087815260200186815260200185815260200184815260200160015481526020018360088060200260405190810160405280929190826008602002808284376000920191909152505050905260025460015460405163d0d898dd60e01b81529293506001600160a01b039091169163d0d898dd916103969185906004016104c5565b600060405180830381600087803b1580156103b057600080fd5b505af11580156103c4573d6000803e3d6000fd5b50505050505050505050565b60006020808352835180602085015260005b818110156103fe578581018301518582016040015282016103e2565b506000604082860101526040601f19601f8301168501019250505092915050565b600080600080600061018080878903121561043957600080fd5b8635955060208701359450604087013593506060870135925087818801111561046157600080fd5b506080860190509295509295909350565b60006020828403121561048457600080fd5b5035919050565b600181811c9082168061049f57607f821691505b6020821081036104bf57634e487b7160e01b600052602260045260246000fd5b50919050565b60006101c082019050838252602083516020840152602084015160408401526040840151606084015260608401516080840152608084015160a084015260a084015160c0840160005b600881101561052b5782518252918301919083019060010161050e565b50505050939250505056fea2646970667358221220b7956df19b25c5e68383303ee8f725ca6b96d06ca147ecd90f834a8e5fb615d764736f6c63430008170033","linkReferences":{}},"methodIdentifiers":{"admin()":"f851a440","groupId()":"a0f44c92","joinGroup(uint256)":"eed02e4b","semaphore()":"7b5d2534","sendFeedback(uint256,uint256,uint256,uint256,uint256[8])":"7b85d27a","terminate()":"0c08bf88","terminated()":"194307bf","title()":"4a79d50c"},"id":2}